:1000000000C0012071000000950000009500000074
:100010009500000095000000950000000000000021
:10002000000000000000000000000000950000003B
:100030009500000000000000950000009500000001
:100040009500000009484FF0050100F001F8FEE7B7
:10005000022909DB013950F8042B0368A3EB0202E3
:1000600040F8042C0139F6D1704700000000002050
:100070000549064A064B9A42BEBF51F8040B42F8A6
:10008000040BF8E7FFF7DEFFA000000000000020EF
:1000900024000020FEE700BF535452002E454E447A
:1000A0000A000000140000001E00000028000000EC
:1000B000320000000000000000000000000000000E
:0400C000000000003C
:040000030000007188
:00000001FF
